:100000000C9473040C94A4040C94A4040C94A40401
:100010000C94A4040C94A4040C94A4040C94A404C0
:100020000C94A4040C94A4040C94A4040C94A404B0
:100030000C94A4040C94A4040C94A4040C94A404A0
:100040000C94A4040C94A4040C94A4040C94A40490
:100050000C94A4040C94A4040C94A4040C94DC3B11
:100060000C94A4040C94503C0C94263C0C94A404D2
:100070000C94A4040C94A4040C94A4040C94A40460
:100080000C94A4040C94A4040C94A4040C94A40450
:100090000C94A4040C94A4040C94A4040C94A40440
:1000A0000C94A4040C94A4040C94A4040C94A40430
:1000B0000C94A4040C94A4040C94A4040C94A40420
:1000C0000C94A4040C94A4040C94A4040C94A40410
:1000D0000C94A4040C94A4040C94A4040C94A40400
:1000E0000C94A4040C94AF130C94DD090C940F0B26
:1000F0000C94F4040C94E51C0C9416070C943C0529
:100100000C942A050C944B070C94590B0C94F9048D
:100110000C9414070C94BA410C94FE3A0C941305F9
:100120000C942B0B0C94003B0C9479090C940C3B15
:100130000C94120B0C940B050C94F4150C94973B37
:100140000C94350B0C9424050C945E060C94FA3A2E
:100150000C94860A0C94740B0C946A0B0C94430751
:100160000C944E3B0C94C00A0C94E0090C94F83AA1
:100170000C940F050C94F43A0C9438050C94BC2D97
:100180000C944C070C944A050C940F090C94610BC9
:100190000C945C0A0C94300A0C94043B0C945009A7
:1001A0000C94770B0C941A050C94AF060C94023B3C
:1001B0000C94F70A0C94BF240C94A13A0C94530BA2
:1001C0000C9417070C942E050C9446050C94490BBF
:1001D0000C94150B0C940A3B0C94B1090C94200B55
:1001E0000C94B0060C9475050C9438070C944407D5
:1001F0000C94950A0C94B1060C94400B0C947C2E34
:100200000C94D9050C94F63A0C94063B0C943809DE
:100210000C94020B0C9478050C9429090C94CE13C1
:100220000C943B090C9447070C9415070C94CB05D0
:100230000C94A80A0C94C02D0C94083B0C94122D1D
:100240000C94A8050C947B050C9418070C94F23AB6
:100250000C944A070C9432050C94E20A0C941F2E5D
:100260000C948E2E0C94AB0A0C948C230C942005C9
:100270000C9435090C94560B0C94CF0A0C94E3099A
:100280000C9476090C946A090C94B2060C940D0A2D
:100290000C948E090C94D2060C9440050C94B7056E
:1002A0000C94FC3A0C9417050C94812E0C94800746
:1002B0000C941106870E00008A0E00008D0E0000BF
:1002C000900E0300950E1300981000009B10000084
:1002D0009E100000A1100300A6101300A912000038
:1002E000AC120000AF120000B2120300B7121300EC
:1002F000BA140000BD140000C0140000C3140300B1
:10030000C8141300CB160000CE160000D116000052
:10031000D4160300D9161300DC180000DF18000003
:10032000E2180000E5180300EA181300ED1A0000B7
:10033000F01A0000F31A0000F61A0300FB1A13006B
:10034000FE1C0000011D0000041D0000071D03002D
:100350000C1D13000F1F0000121F0000151F0000CE
:10036000181F03001D1F130020210000232100007F
:1003700026210000292103002E2113003123000033
:1003800034230000372300003A2303003F231300E7
:100390004225000045250000482500004B250300AC
:1003A000502513005327000056270000592700004E
:1003B0005C270300612713006429000067290000FF
:1003C0006A2900006D29030072291300752B0000B3
:1003D000782B00007B2B00007E2B0000812B00007F
:1003E000E90C0000EC0C0000EF0C0000F20C000027
:1003F000F50C0000F80C0000FB0C0000FE0C0900DE
:10040000070D00000A0D00000F0D0000120D0F0077
:10041000230D0000260D0F00620D0000650D000089
:10042000680D00006B0D0000700D0000730D0F00D3
:10043000840D0000870D0F00C30D0000C80D0000E3
:10044000CB0D0000D40D0000D70D0300DC0D000023
:10045000DF0D0300E40D0000E70D0300EC0D0000CC
:10046000EF0D0000F20D0000F50D0000F80D00008A
:10047000FB0D0300000E0000030E0000060E00003E
:10048000090E00000C0E00000F0E0300140E0000F9
:10049000170E00001A0E00001D0E0300220E0000B1
:1004A000250E0000280E00002B0E00002E0E00006E
:1004B000310E0300360E0000390E00003C0E000025
:1004C0003F0E0300440E0000470E00004A0E0000DD
:1004D0004D0E0300520E0000550E03005A0E000090
:1004E0005D0E0300620E0000650E0300880C09001B
:1004F000910C09009A0C0900A30C0900AC0C000037
:10050000AF0C0900B80C0000BB0C0900C40C0000C3
:10051000C70C0900D00C0000D30C0900A40A00008D
:10052000A70A0000AA0A0000AD0A0000B00A0000F5
:10053000B30A0000B60A0000BE0A0000C10A0000AB
:10054000C40A0000C70A0000CA0A0000CD0A000061
:10055000D00A0000D80A0000DB0A0000DE0A000012
:10056000E10A0000E40A0000E70A0000EA0A0000CD
:10057000F20A0000F50A0000F80A0000FB0A000079
:10058000FE0A0000010B0000040B0000070B000036
:100590000F0B0000120B0000150B0000180B0000E1
:1005A0001B0B00001E0B0000210B0000240B0000A1
:1005B0002C0B00002F0B0000320B0000350B00004D
:1005C000380B00003B0B00003E0B0000410B00000D
:1005D000490B00004C0B00004F0B0000520B0000B9
:1005E000550B0000580B00005B0B0000630B000074
:1005F000660B0000690B00006C0B00006F0B000025
:10060000720B0000750B00007D0B0000800B0000DA
:10061000830B0000860B0000890B00008C0B000090
:100620008F0B0000970B00009A0B00009D0B000041
:10063000A00B0000A30B0000A60B0000A90B0000FC
:10064000AF0B0000B20B0000B50B0000B80B0000B0
:10065000BB0B0000BE0B0000C10B0000C40B000070
:10066000C70B0000CA0B0000CD0B0000D00B000030
:10067000D30B0000D60B0000D90B0000DC0B0000F0
:10068000DF0B0000E20B0000E50B0000E80B0000B0
:10069000EB0B0000EE0B0000F10B0000F40B000070
:1006A000F70B0000FA0B0000FD0B0000000C00002F
:1006B000030C0000060C0000090C00000C0C0000EC
:1006C0000F0C0000120C0000150C0000180C0000AC
:1006D0001B0C00001E0C0000210C0000240C00006C
:1006E000270C00002A0C00002D0C0000300C00002C
:1006F000330C0000360C0000390C00003C0C0000EC
:100700003F0C0000420C0000450C0000480C0000AB
:100710004B0C00004E0C0000510C0000540C00006B
:10072000570C00005A0C0000290A00002C0A000097
:100730002F0A0000320A0000350A00003A0A0000C1
:100740003D0A0F004E0A0000510A0F008D0A0000FA
:10075000900A0000C62D0000BB2D0000B02D000047
:10076000A52D00009A2D00008F2D00007E2D090080
:100770006D2D09005C2D09004B2D0900402D000056
:10078000352D00002A2D00001F2D0000142D000023
:10079000092D0000FE2C0000F32C0000E82C0000C6
:1007A000DD2C0000D22C0000C72C0000BC2C000067
:1007B000B12C0000A62C00009B2C00008E2C030006
:1007C000832C0000302C0300352C09003E2C09003E
:1007D000472C0900502C0900592C0F006A2C0F00DF
:1007E000540728071C05EC04E003B40223000B00A7
:1007F00083000C0043004B0000002200250028006D
:100800002B002E0031003400020100000501080118
:100810000B01050505050705080808080202020284
:100820000A0A08080404040401010101010101018C
:100830000303030303030303040707070C0C0C0C57
:100840000C0C0C0C02020202060606060606060640
:100850000B0B0B0B0B0B0B0B0102102020080810CD
:100860002040102040800201020108040201010220
:1008700004081020408080402010080402018004F9
:100880000201804020100804020108040201010254
:10089000040810204080010204081020408000005D
:1008A0000A0B02090C0D0E080703040100000000EA
:1008B0000000000000000000000000000000000038
:1008C00000000000000000000000121110000000F5
:1008D0000000000000000000000000000000000018
:1008E00000000000BA4111241FBECFEFDFEFDEBFD2
:1008F000CDBF00E00CBF16E0A0E0B2E0E0E9F0EA16
:1009000000E00BBF02C007900D92AE35B107D9F7DA
:100910002DE2AEE5B6E001C01D92A53DB207E1F7BC
:1009200014E0C3E7D4E000E006C021970109802F5E
:10093000FE010E94324EC237D10780E00807A9F7B6
:100940000E944D470C9446500C94000040917B0847
:1009500050917C08EDE7F8E081E090E042305105ED
:1009600030F410927C0810927B080895C90121810F
:1009700021939C012F5F3F4F42175307B9F7909384
:100980007C0880937B080895282F30E0F901E25617
:10099000F74F9491F901E85AF74F44912E5E374F83
:1009A000F9012491222309F435C0992311F19150C2
:1009B0009231F8F4E92FF0E08827EE51FB4F8F4F8A
:1009C0000C94324E13051705F4040B050F05F904BA
:1009D0001A05200524052A052E05320538053C0593
:1009E000F904400546054A05809180008F77809381
:1009F0008000E22FF0E0EE0FFF1FE850F84FA591C6
:100A0000B4918FB7F894EC91611148C040954E2392
:100A10004C938FBF0895809180008F7DE8CF8091A7
:100A20008000877FE4CF84B58F7784BDE2CF84B523
:100A30008F7DFBCF8091B0008F778093B000D9CFAE
:100A40008091B0008F7DF9CF809190008F77809357
:100A50009000CFCF809190008F7DF9CF8091900052
:100A6000877FF5CF8091A0008F778093A000C1CFC2
:100A70008091A0008F7DF9CF8091A000877FF5CF76
:100A8000809120018F7780932001B3CF8091200146
:100A90008F7DF9CF80912001877FF5CF4E2BB8CF86
:100AA0003FB7F8948091770890917808A0917908E1
:100AB000B0917A0826B5A89B05C02F3F19F0019682
:100AC000A11DB11D3FBFBA2FA92F982F8827BC01A8
:100AD000CD01620F711D811D911D42E0660F771FD0
:100AE000881F991F4A95D1F7089581E090E00895F5
:100AF000825F9D4D0895AF92BF92CF92DF92EF92A9
:100B0000FF920F931F93CF93DF936C017B018B01B7
:100B1000040F151FEB015E01AE18BF08C017D10707
:100B200059F06991D601ED91FC910190F081E02D91
:100B3000C6011995892B79F7C501DF91CF911F91D6
:100B40000F91FF90EF90DF90CF90BF90AF900895FE
:100B5000FC01538D448D252F30E0842F90E0821BC3
:100B6000930B541710F0CF96089501970895FC0148
:100B7000918D828D981761F0A28DAE0FBF2FB11DA0
:100B80005D968C91928D9F5F9F73928F90E00895F8
:100B90008FEF9FEF0895FC01918D828D981731F0B2
:100BA000828DE80FF11D858D90E008958FEF9FEF06
:100BB0000895FC01918D228D892F90E0805C9F4FDC
:100BC000821B91098F73992708958DE799E00E9400
:100BD000D90521E0892B09F420E0822F0895FC013A
:100BE000A48DA80FB92FB11DA35ABF4F2C91848D8E
:100BF00090E001968F739927848FA689B7892C93EB
:100C0000A089B1898C91837080648C93938D848D3D
:100C1000981306C00288F389E02D80818F7D808340
:100C20000895EF92FF920F931F93CF93DF93EC0100
:100C300081E0888F9B8D8C8D98131AC0E889F98983
:100C4000808185FF15C09FB7F894EE89FF89608386
:100C5000E889F98980818370806480839FBF81E007
:100C600090E0DF91CF911F910F91FF90EF90089549
:100C7000F62E0B8D10E00F5F1F4F0F731127E02E24
:100C80008C8D8E110CC00FB607FCFACFE889F9895C
:100C9000808185FFF5CFCE010E94EF05F1CFEB8D6E
:100CA000EC0FFD2FF11DE35AFF4FF0829FB7F89430
:100CB0000B8FEA89FB8980818062CFCFCF93DF934E
:100CC000EC01888D8823B9F0AA89BB89E889F98964
:100CD0008C9185FD03C0808186FD0DC00FB607FC99
:100CE000F7CF8C9185FFF2CF808185FFEDCFCE01CC
:100CF0000E94EF05E9CFDF91CF91089580E090E069
:100D0000892B29F00E94E50581110E94000080E0F6
:100D100090E0892B49F080E090E0892B29F00E9437
:100D2000000081110E94000080E090E0892B49F0D2
:100D300080E090E0892B29F00E94000081110E9440
:100D4000000080E090E0892B49F080E090E0892B62
:100D500029F00E94000081110C940000089508956C
:100D6000089508950895FC018AE295E091838083B7
:100D700012821382148215821682178210861186BF
:100D8000128613861486158616861786108A118A8F
:100D9000128A138A148A158A168A81E0878B108E2C
:100DA000118E08950895FC0182E295E0918380837D
:100DB000128213821482158216821782108611867F
:100DC000128613861486158616861786108A118A4F
:100DD000128A138A148A158A168A178A108E118E1F
:100DE00081E0828F138E148E0895FC018AE195E0D4
:100DF0009183808312821382148215821682178255
:100E00001086118612861386148615861686178616
:100E1000108A118A128A138A148A158A168A81E026
:100E2000878B108E118E0895089508950895089562
:100E30000895FC011082118212821382148215829D
:100E400016821782108612861186138615861486DE
:100E5000DC01A35FBE4F11961C921E92168612965D
:100E60001C921196E15FFD4F118210821C92089531
:100E7000FB011082118212821382FA011082118208
:100E8000128213820895089590E080E0089590E022
:100E900080E00895089508950895DC01FB018085A0
:100EA000882329F17185628553854485358526859A
:100EB000978580891896EC911897E11116C07C935C
:100EC00011966C93119712965C93129713964C930C
:100ED000139714963C93149715962C931597169682
:100EE0009C93169717968C931797CD010895708150
:100EF0006181528143813481258196818781DACF56
:100F000082EE95E00895282F8CEE97E0A0E0BB27B5
:100F100030E0220F331F820F931FA11DB11DABBF05
:100F2000FC01879196910895FC018481882329F022
:100F30006581768187819085089560817181828144
:100F400093810895CF93DF93EC01CB010E94940726
:100F50002C81211104C0688379838A839B83DF916C
:100F6000CF910895CF93DF93EC01CB010E949407BA
:100F70002C81211104C0688379838A839B83CE01ED
:100F8000DF91CF9108952F923F924F925F926F928F
:100F90007F928F929F92AF92BF92CF92DF92EF9209
:100FA000FF920F931F93CF93DF93CDB7DEB7E697F2
:100FB0000FB6F894DEBF0FBECDBF6C014B015A01D6
:100FC0003901C701F6011082118212821382148244
:100FD00015821682178210860E9494071B012C012D
:100FE000C8010E9494079B01AC01C201B1010E949B
:100FF000454C6C8F7D8F8E8F9F8F18A219A21AA2DD
:101000001BA21CA2C3010E9494072B013C01C50135
:101010000E9494079B01AC01C301B2010E94454CA0
:101020006A877B878C879D871E861F86188A198A08
:101030001A8AC4010E9494072B013C01C5010E9439
:1010400094079B01AC01C301B2010E94454C698326
:101050007A838B839C831D821E821F821886198649
:10106000CE0101960E9494074B015C01CE010A96C5
:101070000E9494079B01AC01C501B4010E94B74CCA
:101080006B8B7C8B8D8B9E8B1F8A188E198E1A8E84
:101090001B8ECE0143960E9494074B015C01CE014A
:1010A0004C960E9494079B01AC01C501B4010E94BB
:1010B000A34D6DA37EA38FA398A719A61AA61BA65E
:1010C0001CA61DA6CE0185960E9494074B015C01CB
:1010D000C8010E9494079B01AC01C501B4010E94A4
:1010E000464C6EA77FA788AB99AB1AAA1BAA1CAA6D
:1010F0001DAA1EAABE01625D7F4FC6010E94B207F3
:10110000C601E6960FB6F894DEBF0FBECDBFDF91E5
:10111000CF911F910F91FF90EF90DF90CF90BF90F4
:10112000AF909F908F907F906F905F904F903F9087
:101130002F900895CF93DF93EC01CB010E94940789
:10114000688379838A839B831C821D821E821F820F
:101150001886DF91CF910895FC018281882319F0D0
:10116000838194810895808191810895CF93DF9345
:10117000EC01CB010E94AC082A81211102C09983A5
:101180008883CE01DF91CF910895AF92BF92CF9225
:10119000DF92EF92FF920F931F93CF93DF93EC01B7
:1011A0008B015A017901198218821A821C821B82D2
:1011B000CB010E94AC086C01C5010E94AC08B701CC
:1011C000C816D90609F0B801CE010E94B608CE01B2
:1011D000DF91CF911F910F91FF90EF90DF90CF9013
:1011E000BF90AF900895CF93DF93EC01CB010E94A5
:1011F000AC082A81211102C099838883DF91CF91A5
:101200000895CF93DF93EC01CB010E94AC08998342
:1012100088831A821C821B82DF91CF910895CF931D
:10122000DF9300D01F92CDB7DEB7FB014081518123
:1012300062817381FC012481211104C040835183A8
:10124000628373830F900F900F900F90DF91CF9177
:101250000895CF93DF93EB010E949407688379830D
:101260008A839B83DF91CF910895FC0114820895B6
:10127000FC0114820895CF93DF93FC01EB01888178
:101280009981AA81BB8121E0248385839683A783EA
:10129000B08780839183A283B383DF91CF91089538
:1012A000CF93DF9300D01F92CDB7DEB7FB01408113
:1012B000518162817381FC012481211104C040832A
:1012C0005183628373830F900F900F900F90DF9183
:1012D000CF910895CF93DF93EB010E949407688329
:1012E00079838A839B83DF91CF910895FC011482D7
:1012F0000895CF93DF93FC01EB0188819981AA8146
:10130000BB8121E0248385839683A783B087808374
:101310009183A283B383DF91CF910895FC01DB0118
:10132000808581111DC07C9111966C911197129648
:101330005C91129713964C91139714963C911497C5
:1013400015962C91159716969C91169717968C9139
:101350007083618352834383348325839683878399
:101360000895FC01DB0180858823F1F07185628599
:101370005385448535852685978580897C9311968C
:101380006C93119712965C93129713964C93139744
:1013900014963C93149715962C93159716969C9338
:1013A000169717968C9308957081618152814381BD
:1013B0003481258196818781E1CFFC0110860895D3
:1013C000FC0110860895FC01DB017C9111966C9163
:1013D000119712965C91129713964C91139714964D
:1013E0003C91149715962C91159716969C911697EB
:1013F00017968C91A1E0A0877187628753874487F5
:10140000358726879787808B7083618352834383D8
:1014100034832583968387830895FC01DB018085CF
:1014200081111DC07C9111966C91119712965C915F
:10143000129713964C91139714963C911497159606
:101440002C91159716969C91169717968C917083F0
:1014500061835283438334832583968387830895EE
:10146000FC01DB0180858823F1F07185628553855D
:10147000448535852685978580897C9311966C9364
:10148000119712965C93129713964C931397149698
:101490003C93149715962C93159716969C93169734
:1014A00017968C93089570816181528143813481B4
:1014B000258196818781E1CFFC01DB017C9111962A
:1014C0006C91119712965C91129713964C91139709
:1014D00014963C91149715962C91159716969C91FD
:1014E000169717968C91A1E0A08771876287538722
:1014F0004487358726879787808B708361835283E3
:10150000438334832583968387830895FC01248154
:1015100021110AC0FB014081518162817381FC016C
:1015200040835183628373830895FC0184818823FF
:1015300051F085819681A781B085FB0180839183DD
:10154000A283B383089580819181A281B381F5CF75
:10155000FC0114820895CF93DF93FC01EB01888195
:101560009981AA81BB8121E0248385839683A78307
:10157000B08780839183A283B383DF91CF91089555
:10158000FC01248121110AC0FB014081518162814B
:101590007381FC0140835183628373830895FC014E
:1015A0008481882351F085819681A781B085FB01D4
:1015B00080839183A283B383089580819181A281E6
:1015C000B381F5CFCF93DF93FC01EB018881998143
:1015D000AA81BB8121E0248385839683A783B0877A
:1015E00080839183A283B383DF91CF910895FC011F
:1015F0002281211106C0FB0120813181FC01318350
:1016000020830895FC018281882331F083819481B5
:10161000FB0191838083089580819181F9CFFC0142
:1016200012820895FC0112820895FC01DB018D9164
:101630009C9121E022839483838391838083089506
:10164000FC012281211106C0FB0120813181FC01B6
:10165000318320830895CF93DF93EB010E94AC0880
:1016600099838883DF91CF910895FC01DB018D91EF
:101670009C9121E0228394838383918380830895C6
:10168000FC012181211104C0FB012081FC01208388
:101690000895FC018181882321F08281FB018083F0
:1016A00008958081FBCFFC0111820895FC01118215
:1016B0000895FC01DB018C9191E09183828380830A
:1016C0000895FC012181211104C0FB012081FC014E
:1016D00020830895FC018181882321F08281FB0110
:1016E000808308958081FBCFFC0111820895FC0165
:1016F000DB018C9191E09183828380830895FC01CA
:10170000108211821282138214821582168217822D
:1017100010861186128613861486158616861786FD
:10172000108A0895E0E3FCE2118210821282148292
:1017300013821582168217821086118612861386EE
:101740001486158616861786108A118A128A138ABD
:10175000148A158A168A178A108E118E128E138E8D
:10176000148E158E168E178E10A211A212A213A21D
:1017700014A215A216A217A210A689E59CE20E9447
:101780007F0B8AE69CE20C947F0BCF93DF93EC01F6
:1017900082E195E0998388831A821B821C82CE01A4
:1017A00005960E947F0B1E8A1F8A188ECE014996CD
:1017B0000E947F0B1AA61BA61CA61DA61EA61FA66E
:1017C000CE01C0960E947F0BCE018F5B9F4F0E947F
:1017D0007F0BCE5ADF4F81E0888319821A82DF9116
:1017E000CF9108953F924F925F926F927F928F9226
:1017F0009F92AF92BF92CF92DF92EF92FF920F93A0
:101800001F93CF93DF9386EC95E090931B0A809310
:101810001A0A82EB95E090931D0A80931C0A86ECCD
:101820009DE290931F0A80931E0ACBEBDDE2D093DA
:10183000210AC093200A00EB1DE21093230A0093B3
:10184000220A332433943092240A1092250A1092EB
:10185000260A8EE995E09093280A8093270A109231
:10186000290A10922A0A10922B0A10922C0A10921E
:101870002D0A10922E0A10922F0A1092300A1092FE
:10188000310A1092320A1092330A1092340A1092DE
:10189000350A1092360A1092370A88E39AE00E94BD
:1018A000C50B10928D0A10928E0A10928F0A109218
:1018B000900A1092910A1092920AD093940AC093BF
:1018C000930A85EAC82E8DE2D82ED092960AC0924D
:1018D000950A9AE9E92E9DE2F92EF092980AE09293
:1018E000970A10939A0A0093990A8FE89DE29093C1
:1018F0009C0A80939B0A30929D0A10929E0A109235
:101900009F0A8AE895E09093A10A8093A00A82EA50
:101910009AE00E94F5068CEB9AE00E94F50686EDAF
:101920009AE00E94F50680EF9AE00E94D3068DE0CF
:101930009BE00E94D3068AE29BE00E94D30687E4E4
:101940009BE00E94B30681E69BE00E94B3068BE712
:101950009BE00E94B30685E99BE00E94B3061092CB
:10196000AF0B1092B00B1092B10B1092B20B109201
:10197000B30B1092B40B1092B50B1092B60B1092E1
:10198000B70B1092B80B1092B90B1092BA0B1092C1
:10199000BB0B1092BC0B1092BD0B1092BE0B1092A1
:1019A000BF0B1092C00B1092C10B1092C20B109281
:1019B000C30B1092C40B1092C50B1092C60B109261
:1019C000C70B1092C80B1092C90B1092CA0B109241
:1019D000CB0B1092CC0B1092CD0B1092CE0B109221
:1019E000CF0B1092D00B1092D10B1092D20B109201
:1019F000D30B1092D40B1092D50B1092D60B1092E1
:101A0000D70B1092D80B1092D90B1092DA0B1092C0
:101A1000DB0B1092DC0B1092DD0B1092DE0B1092A0
:101A2000DF0B1092E00B1092E10B1092E20B109280
:101A3000E30B1092E40B1092E50B1092E60B109260
:101A4000E70B1092E80B1092E90B1092EA0B109240
:101A5000EB0B1092EC0B1092ED0B1092EE0B109220
:101A6000EF0B1092F00B1092F10B1092F20B109200
:101A7000F30B1092F40B1092F50B1092F60B1092E0
:101A8000F70B1092F80B1092F90B1092FA0B1092C0
:101A9000FB0B1092FC0B1092FD0B1092FE0B1092A0
:101AA000FF0B1092000C1092010C1092020C10927D
:101AB000030C1092040C1092050C1092060C10925C
:101AC000070C1092080C1092090C10920A0C10923C
:101AD0000B0C10920C0C10920D0C10920E0C10921C
:101AE0000F0C1092100C1092110C1092120C1092FC
:101AF000130C1092140C1092150C1092160C1092DC
:101B0000170C1092180C1092190C10921A0C1092BB
:101B10001B0C10921C0C10921D0C10921E0C10929B
:101B20001F0C1092200C1092210C1092220C10927B
:101B3000230C1092240C1092250C1092260C10925B
:101B4000270C1092280C1092290C10922A0C10923B
:101B50002B0C10922C0C10922D0C10922E0C10921B
:101B60002F0C1092300C1092310C1092320C1092FB
:101B7000330C1092340C1092350C1092360C1092DB
:101B8000370C1092380C1092390C10923A0C1092BB
:101B90003B0C10923C0C10923D0C10923E0C10929B
:101BA0003F0C1092400C1092410C1092420C10927B
:101BB000430C1092440C1092450C1092460C10925B
:101BC000470C1092480C1092490C10924A0C10923B
:101BD0004B0C10924C0C10924D0C10924E0C10921B
:101BE0004F0C1092500C1092510C1092520C1092FB
:101BF000530C1092540C1092550C1092560C1092DB
:101C0000570C1092580C1092590C10925A0C1092BA
:101C10005B0C10925C0CD0935E0CC0935D0C109327
:101C2000600C00935F0CD092620CC092610CF09239
:101C3000640CE092630C20E4622E2DE2722E70920E
:101C4000660C6092650C35E3432E3DE2532E5092B4
:101C5000680C4092670C8FE19DE290936A0C809330
:101C6000690C84E19DE290936C0C80936B0C8AE28A
:101C70009DE290936E0C80936D0C89E09DE29093B1
:101C8000700C80936F0C8EEF9CE29093720C80939B
:101C9000710C83EF9CE29093740C8093730C88EE2C
:101CA0009CE29093760C8093750C8DED9CE2909362
:101CB000780C8093770C82ED9CE290937A0C809361
:101CC000790C87EC9CE290937C0C80937B0C8CEBE2
:101CD0009CE290937E0C80937D0C81EB9CE2909330
:101CE000800C80937F0C86EA9CE29093820C809318
:101CF000810C3092830C1092840C1092850C86E734
:101D000095E09093870C8093860C1092880C10922B
:101D1000890C10928A0C10928B0C10928C0C1092E1
:101D20008D0C10928E0C10928F0C1092900C1092C1
:101D3000910C1092920C1092930C1092940C1092A1
:101D4000950C1092960C1092970C1092980C109281
:101D5000990C10929A0C10929B0C10929C0C109261
:101D60009D0C10929E0C10929F0C1092A00C109241
:101D7000A10C1092A20C1092A30C1092A40C109221
:101D8000A50C1092A60C1092A70C1092A80C109201
:101D9000A90C1092AA0C1092AB0C1092AC0C1092E1
:101DA000AD0C1092AE0C1092AF0C1092B00C1092C1
:101DB000B10C1092B20C1092B30C1092B40C1092A1
:101DC000B50C1092B60C1092B70C1092B80C109281
:101DD000B90C1092BA0C1092BB0C1092BC0C109261
:101DE000BD0C1092BE0C1092BF0C1092C00C109241
:101DF000C10C1092C20C1092C30C1092C40C109221
:101E0000C50C1092C60C1092C70C1092C80C109200
:101E1000C90C1092CA0C1092CB0C1092CC0C1092E0
:101E2000CD0C1092CE0C1092CF0C1092D00C1092C0
:101E3000D10C1092D20C1092D30C1092D40C1092A0
:101E4000D50C1092D60C1092D70C1092D80C109280
:101E5000D90C1092DA0C1092DB0C4EE7842E4DE276
:101E6000942E9092DD0C8092DC0C5DE6E52E5DE216
:101E7000F52EF092DF0CE092DE0C6CE5A62E6DE202
:101E8000B62EB092E10CA092E00C7BE4C72E7DE26E
:101E9000D72ED092E30CC092E20C3092E40C109258
:101EA000E50C1092E60C82E695E09093E80C8093A6
:101EB000E70C1092E90C1092EA0C1092EB0C1092C5
:101EC000EC0C1092ED0C1092EE0C1092EF0C1092A4
:101ED000F00C1092F10C1092F20C1092F30C109284
:101EE000F40C1092F50C1092F60C1092F70C109264
:101EF000F80C1092F90C1092FA0C1092FB0C109244
:101F0000FC0C1092FD0C1092FE0C1092FF0C109223
:101F1000000D1092010D1092020D1092030D1092FF
:101F2000040D1092050D1092060D1092070D1092DF
:101F3000080D1092090D10920A0D10920B0D1092BF
:101F40000C0D8DE09DE00E94C50B1092620D109269
:101F5000630D1092640D1092650D1092660D109233
:101F6000670D1092680D1092690D10926A0D109213
:101F70006B0D10926C0D10926D0D8EE69DE00E941F
:101F8000C50B1092C30D1092C40D1092C50D8AE5B9
:101F900095E09093C70D8093C60D1092C80D1092D6
:101FA000C90D1092CA0D1092CB0D1092CC0D10924B
:101FB000CD0D1092CE0D1092CF0D1092D00D30920B
:101FC000D10D1092D20D1092D30D1092D40D10920B
:101FD000D50D1092D60D1092D80D1092D70D1092EB
:101FE000D90D1092DB0D1092DA0D1092DC0D1092CB
:101FF000DD0D1092DE0D1092E00D1092DF0D1092AB
:10200000E10D1092E30D1092E20D1092E40D10928A
:10201000E50D1092E60D1092E80D1092E70D10926A
:10202000E90D1092EB0D1092EA0D1092EC0D10924A
:10203000ED0D1092EE0D1092EF0D1092F00D10922A
:10204000F10D1092F20D1092F30D1092F40D10920A
:10205000F50D1092F60D1092F70D1092F80D1092EA
:10206000F90D1092FA0D1092FC0D1092FB0D1092CA
:10207000FD0D1092FF0D1092FE0D1092000E1092A9
:10208000010E1092020E1092030E1092040E109286
:10209000050E1092060E1092070E1092080E109266
:1020A000090E10920A0E10920B0E10920C0E109246
:1020B0000D0E10920E0E1092100E10920F0E109226
:1020C000110E1092130E1092120E1092140E109206
:1020D000150E1092160E1092170E1092180E1092E6
:1020E000190E10921A0E10921B0E10921C0E1092C6
:1020F0001E0E10921D0E10921F0E1092210E1092A5
:10210000200E1092220E1092230E1092240E109286
:10211000250E1092260E1092270E1092280E109265
:10212000290E10922A0E10922B0E10922C0E109245
:102130002D0E10922E0E10922F0E1092300E109225
:10214000320E1092310E1092330E1092350E109204
:10215000340E1092360E1092370E1092380E1092E6
:10216000390E10923A0E10923B0E10923C0E1092C5
:102170003D0E10923E0E1092400E10923F0E1092A5
:10218000410E1092430E1092420E1092440E109285
:10219000450E1092460E1092470E1092480E109265
:1021A000490E10924A0E10924B0E10924C0E109245
:1021B0004E0E10924D0E10924F0E1092510E109224
:1021C000500E1092520E1092530E1092540E109206
:1021D000560E1092550E1092570E1092590E1092E4
:1021E000580E10925A0E10925B0E10925C0E1092C6
:1021F0005E0E10925D0E10925F0E1092610E1092A4
:10220000600E1092620E1092630E1092640E109285
:10221000660E1092650E1092670E1092690E109263
:10222000680ED0936B0EC0936A0E90926D0E8092E2
:102230006C0EF0926F0EE0926E0EB092710EA09244
:10224000700ED092730EC092720E7092750E6092E4
:10225000740E5092770E4092760E8FE19DE290932D
:10226000790E8093780E84E19DE290937B0E8093AB
:102270007A0E8AE29DE290937D0E80937C0EEEE8CA
:10228000CE2EECE2DE2ED0927F0EC0927E0EF0E3D8
:10229000AF2EFCE2BF2EB092810EA092800E309243
:1022A000820E1092830E1092840E86E495E0909335
:1022B000860E8093850E87E89EE00E94190788E9C4
:1022C00090E10E94190789EA92E10E9419078AEBBE
:1022D00094E10E9419078BEC96E10E9419078CED9E
:1022E00098E10E9419078DEE9AE10E9419078EEF7E
:1022F0009CE10E9419078FE09FE10E94190780E28C
:1023000091E20E94190781E393E20E94190782E497
:1023100095E20E94190783E597E20E94190784E677
:1023200099E20E9419071092752B1092762B109249
:10233000772B1092782B1092792B10927A2B109287
:102340007B2B10927C2B10927D2B10927E2B109267
:102350007F2B1092802B1092812B1092822B109247
:10236000832BD093852BC093842B89E09DE290939F
:10237000872B8093862B8EEF9CE29093892B809302
:10238000882B83EF9CE290938B2B80938A2B88EE93
:102390009CE290938D2B80938C2B8DED9CE29093FF
:1023A0008F2B80938E2B82ED9CE29093912B8093C8
:1023B000902B87EC9CE29093932B8093922B8CEB49
:1023C0009CE29093952B8093942B81EB9CE29093CD
:1023D000972B8093962B86EA9CE29093992B80937F
:1023E000982BB0929B2BA0929A2BF0929D2BE0926F
:1023F0009C2B8BE99CE290939F2B80939E2BD092F9
:10240000A12BC092A02B1093A32B0093A22B83E8A7
:102410009CE29093A52B8093A42B3092A62B109234
:10242000A72B1092A82B82E395E09093AA2B809380
:10243000A92B3092AB2B1092AC2B1092AD2BEEEA65
:10244000FBE28AE19CE211821082128213821482E2
:1024500015821682178210861186128613861486BC
:10246000158617861686118A108A72968E179F0710
:1024700051F78CE19AE090931B2C80931A2C8AEEF2
:1024800095E09093AF2B8093AE2B20E82093B02B58
:1024900086E98093B12B88E98093B22B1092B32BFD
:1024A0001092B42B1092B52B1092B62B1092B72B22
:1024B0001092B82B1092B92B1092BA2B1092BB2B02
:1024C0008AE19CE29093BD2B8093BC2B81E090E04D
:1024D0009093BF2B8093BE2B47E25AE050931D2C64
:1024E00040931C2C40EA5AE050931F2C40931E2C22
:1024F00046EF55E05093C12B4093C02B2093C22B45
:1025000030EF3093C32B3AEF3093C42B32E030934B
:10251000C52B1092C62B1092C72B1092C82B10926D
:10252000C92B41E050E060E070E04093CA2B50932B
:10253000CB2B6093CC2B7093CD2B4CE15CE2509372
:10254000CF2B4093CE2B42E050E05093D12B4093C1
:10255000D02B46E85CE05093212C4093202C43E0A4
:1025600056E05093D32B4093D22B1092D42B31EEC4
:102570003093D52B35EF3093D62B35E03093D72BD6
:102580001092D82B1092D92B1092DA2B1092DB2BB1
:1025900042E050E060E070E04093DC2B5093DD2B94
:1025A0006093DE2B7093DF2B40E25CE25093E12BD3
:1025B0004093E02B9093E32B8093E22B47EE5CE07B
:1025C0005093232C4093222C4FE056E05093E52B60
:1025D0004093E42B2093E62B22EB2093E72B26EE6F
:1025E0002093E82B2EE02093E92B1092EA2B1092F7
:1025F000EB2B1092EC2B1092ED2B43E050E060E0BF
:1026000070E04093EE2B5093EF2B6093F02B709380
:10261000F12B22E23CE23093F32B2093F22B9093A8
:10262000F52B8093F42B25E83EE03093252C209366
:10263000242C2AE136E03093F72B2093F62B1092CE
:10264000F82B25E62093F92B2DEC2093FA2B2DE186
:102650002093FB2B1092FC2B1092FD2B1092FE2B43
:102660001092FF2B44E050E060E070E04093002CBB
:102670005093012C6093022C7093032C24E23CE2D3
:102680003093052C2093042C9093072C8093062CD8
:1026900029EA3BE23093272C2093262C25E236E0D2
:1026A0003093092C2093082C10920A2C2AEC2093AA
:1026B0000B2C2AE920930C2C2BE320930D2C109249
:1026C0000E2C10920F2C1092102C1092112C45E011
:1026D00050E060E070E04093122C5093132C609314
:1026E000142C7093152C26E23CE23093172C209387
:1026F000162C9093192C8093182C8EE296E09093D0
:10270000292C8093282C83E396E090932B2C8093A4
:102710002A2C8EEA9BE290932D2C80932C2C86E021
:1027200090E090932F2C80932E2CDF91CF911F91CE
:102730000F91FF90EF90DF90CF90BF90AF909F9060
:102740008F907F906F905F904F903F900895FC0125
:102750008181882311F08281089580810895CF932B
:10276000DF93FC01C481D581828193810E94A713EC
:102770009981911103C091E089278883DF91CF91DE
:102780000895CF93DF93EC01CB010E94A7139981A9
:10279000911101C08883DF91CF910895CF92DF928C
:1027A000EF92FF920F931F93CF93DF93CDB7DEB7D6
:1027B000E6970FB6F894DEBF0FBECDBF6C0180E088
:1027C00090E0A8ECB2E48DA39EA3AFA3B8A719A68E
:1027D0001AA61BA61CA61DA61C8E1D8E1E8E1F8E45
:1027E00018A219A21AA21BA21CA280E090E0AAE7DC
:1027F000B4E48B8B9C8BAD8BBE8B1F8A188E198E8D
:102800001A8E1B8E1A861B861C861D861E861F86A8
:10281000188A198A1A8AB6016E5F7F4FCE01019617
:102820000E949A08CE0185967C018E01045E1F4F9E
:102830009E012D5E3F4FAE01465F5F4FBE016F5F51
:102840007F4F09960E94C3078601075D1F4FBE0197
:10285000625D7F4FC8010E94B207C6018696F601ED
:1028600027A1211102C021E026A30E94A7138823DB
:1028700081F0F601EA5AFF4FE080F180B801CE0105
:1028800001960E949A08BE016F5F7F4FC7010E94A8
:10289000A20780E090E0A8ECB2E48DA39EA3AFA3D2
:1028A000B8A719A61AA61BA61CA61DA61C8E1D8EAF
:1028B0001E8E1F8E18A219A21AA21BA21CA280E0B3
:1028C00090E0AAE7B4E48B8B9C8BAD8BBE8B1F8A08
:1028D000188E198E1A8E1B8E1A861B861C861D86D4
:1028E0001E861F86188A198A1A8AB601655F7F4F6D
:1028F000CE0101960E949A08CE0185967C018E0138
:10290000045E1F4F9E012D5E3F4FAE01465F5F4F3D
:10291000BE016F5F7F4F09960E94C30786010B5C63
:102920001F4FBE01625D7F4FC8010E94B207C60102
:10293000C296F60123A9211102C021E022AB0E9418
:10294000A713882381F0F601E85AFF4FE080F18059
:10295000B801CE0101960E949A08BE016F5F7F4FB9
:10296000C7010E94A20780E090E0A0E2B1E48DA33D
:102970009EA3AFA3B8A719A61AA61BA61CA61DA6A0
:102980001C8E1D8E1E8E1F8E18A219A21AA21BA2AB
:102990001CA280E090E0AAE7B4E48B8B9C8BAD8B0B
:1029A000BE8B1F8A188E198E1A8E1B8E1A861B8656
:1029B0001C861D861E861F86188A198A1A8AB601E9
:1029C0006C5E7F4FCE0101960E949A08CE018596DB
:1029D0007C018E01045E1F4F9E012D5E3F4FAE01B4
:1029E000465F5F4FBE016F5F7F4F09960E94C3072E
:1029F00086010F5B1F4FBE01625D7F4FC8010E94C1
:102A0000B207C601CE96F60127AD211102C021E022
:102A100026AF0E94A713882381F0F601E65AFF4FE4
:102A2000E080F180B801CE0101960E949A08BE01B3
:102A30006F5F7F4FC7010E94A20780E090E0A8EC83
:102A4000B2E48DA39EA3AFA3B8A719A61AA61BA68E
:102A50001CA61DA61C8E1D8E1E8E1F8E18A219A2CE
:102A60001AA21BA21CA280E090E0AAE7B4E48B8B20
:102A70009C8BAD8BBE8B1F8A188E198E1A8E1B8E67
:102A80001A861B861C861D861E861F86188A198A32
:102A90001A8AB601635E7F4FCE0101960E949A08A2
:102AA000CE0185967C018E01045E1F4F9E012D5E36
:102AB0003F4FAE01465F5F4FBE016F5F7F4F09968C
:102AC0000E94C3078601035B1F4FBE01625D7F4FFB
:102AD000C8010E94B207C601865B9F4FFC0121819D
:102AE000211102C021E020830E94A713882381F0D6
:102AF000F601E45AFF4FC080D180B801CE010196A3
:102B00000E949A08BE016F5F7F4FC6010E94A20714
:102B1000E6960FB6F894DEBF0FBECDBFDF91CF9122
:102B20001F910F91FF90EF90DF90CF900895EF925B
:102B3000FF921F93CF93DF93EC01CB017A010E94A8
:102B4000A713182FC7010E94A713812B888319820E
:102B50001A82CE01DF91CF911F91FF90EF900895DF
:102B6000EF92FF921F93CF93DF93EC01CB017A0199
:102B70000E94A713182FC7010E94A71381238883DF
:102B800019821A82CE01DF91CF911F91FF90EF90B1
:102B900008951F93CF93DF93EC01162FCA010E9473
:102BA000A7138123888319821A82CE01DF91CF91E6
:102BB0001F910895CF93DF93EC01CB010E94A713DF
:102BC000888319821A82DF91CF910895CF93DF9382
:102BD000EC01CB010E94A7139981911101C0888358
:102BE000CE01DF91CF9108952F923F924F925F9245
:102BF0006F927F928F929F92AF92BF92CF92DF920D
:102C0000EF92FF920F931F93CF93DF93CDB7DEB771
:102C1000E8970FB6F894DEBF0FBECDBF8C01FC0164
:102C2000E150F34EE080F180C7010E94A7138111AB
:102C300009C0D80113968C911397811103C081E0CC
:102C400012968C93C7010E94A713811106C0F80148
:102C50008185811102C081E08087F801EF5FF24E2B
:102C6000E080F180C7010E94A71398012D5E3D4FBF
:102C70006901882341F0D90111968C911197811136
:102C800002C081E08C93C7010E94A713882341F002
:102C9000F801E75EFD4F8181811102C081E08083F0
:102CA000F801EB5FF24EE080F180C7010E94A713AC
:102CB000F801EB5CF94FFFA7EEA7882329F081818B
:102CC000811102C081E08083C7010E94A71388237D
:102CD00041F0F801E55CF94F8181811102C081E08A
:102CE0008083F801ED5FF24EE080F180C7010E9421
:102CF000A71398012C5D3B4F1901882341F0D9019E
:102D000011968C911197811102C081E08C93C701BB
:102D10000E94A713882341F0F801E65DFB4F8181F3
:102D2000811102C081E08083F801E95FF24EE0800A
:102D3000F180C7010E94A713F801EA5BF74FF9ABD6
:102D4000E8AB882329F08181811102C081E0808372
:102D5000C7010E94A713882341F0F801E45BF74FF5
:102D60008181811102C081E08083F801E75FF24E2A
:102D7000E080F180C7010E94A7139801295A354FBE
:102D80003BAB2AAB882341F0D90111968C91119766
:102D9000811102C081E08C93C7010E94A713882390
:102DA00041F0F801E35AF54F8181811102C081E0C1
:102DB0008083F801E55FF24EA080B180C5010E94DA
:102DC000A713F801E859F34F7F01882329F0818187
:102DD000811102C081E08083C5010E94A71388236E
:102DE00041F0F801E259F34F8181811102C081E085
:102DF0008083F801E35FF24EA080B180C5010E949C
:102E0000A71398012758314F2901882341F0D90190
:102E100011968C911197811102C081E08C93C501AC
:102E20000E94A713882341F0F801E158F14F8181F6
:102E3000811102C081E08083F801E15FF24EFDABB9
:102E4000ECABA080B180C5010E94A7139801265762
:102E50003F4E3901882341F0D90111968C91119789
:102E6000811102C081E08C93C5010E94A7138823C1
:102E700041F0F801E057FF4E8181811102C081E0ED
:102E80008083F801EF5EF24EFFABEEABA080B18025
:102E9000C5010E94A713882341F0F801E556FD4EB5
:102EA0008181811102C081E08083C5010E94A71346
:102EB000882341F0F801E35AF54F8181811102C066
:102EC00081E08083F801ED5EF24EA080B180C50103
:102ED0000E94A713882341F0F801E455FB4E81813D
:102EE000811102C081E08083C5010E94A71388235D
:102EF00041F0F801EE54FB4E8181811102C081E066
:102F00008083F801E75EF24EA080B180C5010E9487
:102F1000A713882341F0F801E354F94E8181811110
:102F200002C081E08083C5010E94A713882341F07D
:102F3000F801ED53F94E8181811102C081E0808357
:102F4000F801EB5EF24E60817181605E7F4FCE01D1
:102F500001960E949A08F801E95EF24E8081918103
:102F60000E9494074B015C01CE0101960E949407D8
:102F70009B01AC01F1E0F8AFC501B4010E949E4D88
:102F800087FD18AE28AD2A871B861C8658013AE0BB
:102F9000A31A33EEB30ABE01665F7F4FC5010E94DC
:102FA000E615F801ED50F34E8181811102C081E0F8
:102FB0008083C5010E94A713882341F0F801E152E4
:102FC000F54E8181811102C081E0808387E090E02D
:102FD0009A8389831B821D821C82F801E55EF24E72
:102FE000808191810E94AC085C01CE0101960E9413
:102FF000AC0821E0A816B90609F020E02A871B8654
:103000001C86480184E0881A83EE980ABE01665F38
:103010007F4FC4010E94E615C8018750934EDC0122
:1030200011962C911197211102C021E02C930E943E
:10303000A7135801B2E3AB1AB7EEBB0A882321F0FD
:10304000B401C5010E94E615A601B501CE010196A5
:103050000E949715A8014354594EBE016F5F7F4FE0
:10306000CE010A960E949715A701BE01665F7F4FA9
:10307000CE010D960E949715A80144555B4EBE01E6
:10308000635F7F4FCE0140960E949715A301BE015A
:10309000605F7F4FCE0143960E949715A801455669
:1030A0005D4EBE016D5E7F4FCE0146960E94971524
:1030B000A201BE016A5E7F4FCE0149960E9497151C
:1030C000A101BE01675E7F4FCE014C960E9497150D
:1030D0004EA55FA5BE01645E7F4FCE014F960E9454
:1030E000971548A959A9BE01615E7F4FCE0182960E
:1030F0000E9497154AA95BA9BE016E5D7F4FCE0164
:1031000085960E949715A8014E5F5F4FBE016B5DCB
:103110007F4FCE0188960E949715A8014152554EC7
:10312000BE01685D7F4FCE018B960E949715BE0150
:10313000655D7F4FC8018051934E0E94E61568017E
:10314000E1EECE1AE2EEDE0AD601ED90FC90C70168
:103150000E94A713882331F0F8018681811102C0F3
:1031600081E08583C7010E94A713882341F0F801FD
:10317000EA5EFD4F8181811102C081E08083C70139
:103180000E94A713882341F0F801E85CF94F818180
:10319000811102C081E08083C7010E94A7138823A8
:1031A00041F0F801E95DFB4F8181811102C081E0AE
:1031B0008083C7010E94A713882341F0F801E75BD1
:1031C000F74F8181811102C081E08083C7010E9495
:1031D000A713882341F0F801E65AF54F8181811148
:1031E00002C081E08083C7010E94A713882341F0B9
:1031F000F801E559F34F8181811102C081E080839C
:10320000C7010E94A713882341F0F801E458F14F49
:103210008181811102C081E08083C7010E94A713D0
:10322000882349F0ACA9BDA9ED91FC918181811160
:1032300002C081E08083F601808191810E94A71302
:10324000882349F0AEA9BFA9ED91FC91818181113C
:1032500002C081E08083F601E080F180C7010E9416
:10326000A713882341F0F801E155FB4E81818111BC
:1032700002C081E08083C7010E94A713882341F028
:10328000F801EF52F74E8181811102C081E0808305
:10329000C7010E94A713882381F0F801E054F94E7A
:1032A0008181811102C081E08083F801EE51F54EE9
:1032B0008181811102C081E080836801FDE1CF0E30
:1032C000DF1ED601ED90FC90C7010E94A713882352
:1032D00029F0F8018681811101C01582C7010E9481
:1032E000A713882341F0D80119968C911997811161
:1032F00002C018961C92C7010E94A713882339F0B8
:10330000F801EA5EFD4F8181811101C01082C70181
:103310000E94A713882339F0F801E75EFD4F8181F1
:10332000811101C01082C7010E94A713882339F0C0
:10333000F801E85CF94F8181811101C01082C70159
:103340000E94A713882339F0F801E55CF94F8181C9
:10335000811101C01082C7010E94A713882339F090
:10336000F801E95DFB4F8181811101C01082C70125
:103370000E94A713882339F0F801E65DFB4F818195
:10338000811101C01082C7010E94A713882339F060
:10339000F801E75BF74F8181811101C01082C701FD
:1033A0000E94A713882339F0F801E45BF74F81816D
:1033B000811101C01082C7010E94A713882339F030
:1033C000F801E65AF54F8181811101C01082C701D1
:1033D0000E94A713882339F0F801E35AF54F818141
:1033E000811101C01082C7010E94A713882339F000
:1033F000F801E559F34F8181811101C01082C701A5
:103400000E94A713882339F0F801E259F34F818114
:10341000811101C01082C7010E94A713882339F0CF
:10342000F801E458F14F8181811101C01082C70178
:103430000E94A713882339F0F801E158F14F8181E8
:10344000811101C01082C7010E94A713882351F087
:10345000F801E15FF24E0190F081E02D8181811150
:1034600001C01082F601E080F180C7010E94A7131D
:10347000882339F0F801E057FF4E8181811101C0A6
:103480001082C7010E94A713882351F0F801EF5E54
:10349000F24E0190F081E02D8181811101C01082F6
:1034A000D601ED90FC90C7010E94A713882339F044
:1034B000F801EF55FD4E8181811101C01082C701D5
:1034C0000E94A713882339F0F801E155FB4E818152
:1034D000811101C01082C7010E94A713882339F00F
:1034E000F801EE54FB4E8181811101C01082C701A9
:1034F0000E94A713882339F0F801EF52F74E81811B
:10350000811101C01082C7010E94A713882339F0DE
:10351000F801EC52F74E8181811101C01082C70180
:103520000E94A713882371F0F801E054F94E8181BD
:10353000811101C01082F801E152F54E81818111A3
:1035400001C01082C7010E94A713882339F0F80137
:10355000ED53F94E8181811101C01082C7010E9493
:10356000A713882339F0F801EB51F54E81818111C1
:1035700001C01082E8960FB6F894DEBF0FBECDBF33
:10358000DF91CF911F910F91FF90EF90DF90CF903F
:10359000BF90AF909F908F907F906F905F904F9073
:1035A0003F902F900895CF93DF93EC01CB010E94C1
:1035B000A71391E08927888319821A82CE01DF91AF
:1035C000CF910895AF92BF92CF92DF92EF92FF9288
:1035D0000F931F93CF93DF93CDB7DEB765970FB6E9
:1035E000F894DEBF0FBECDBF8C0108960E94A713D2
:1035F000882331F0F8018589811102C081E0848B34
:10360000C8010B960E94A713882329F0F801858929
:10361000811101C0148A7801FEE0EF0EF11CB8019F
:103620006E5F7F4FA701CE0140960E9497156801FB
:1036300085E0C80ED11CB601CE0107960E94DA15AE
:10364000BE01695F7F4FCE010A960E94D31A5801CE
:10365000E4E1AE0EB11CB501CE0101960E94DA156F
:10366000BE016F5F7F4FCE0104960E94D31AAE0158
:10367000465F5F4FBE016C5F7F4FCE010D960E948B
:10368000B015AE01405F5F4FBE01635F7F4FCE015B
:1036900043960E94B015BE016D5E7F4FC7010E9428
:1036A000E615B701CE0107960E94DA15BE01695FE3
:1036B0007F4FCE010A960E94D31AB501CE01019622
:1036C0000E94DA15BE016F5F7F4FCE0104960E9403
:1036D000D31AAE01465F5F4FBE016C5F7F4FCE01D4
:1036E0000D960E94B015A601BE01635F7F4FCE010B
:1036F00040960E94B015BE01605F7F4FC8014196A1
:103700000E94E61565960FB6F894DEBF0FBECDBFDA
:10371000DF91CF911F910F91FF90EF90DF90CF90AD
:10372000BF90AF900895AF92BF92CF92DF92EF9289
:10373000FF920F931F93CF93DF93CDB7DEB76597BB
:103740000FB6F894DEBF0FBECDBF8C010B960E9462
:10375000A713882331F0F8018289811102C081E02A
:10376000818BC80108960E94A713882329F0F801CD
:103770008289811101C0118A5801FEE0AF0EB11C8F
:10378000A8014E5F5F4FB501CE0140960E9497158C
:10379000780185E0E80EF11CB701CE0107960E9482
:1037A000DA15BE01695F7F4FCE010A960E94D31AD7
:1037B0006801E1E1CE0ED11CB601CE0101960E9456
:1037C000DA15BE016F5F7F4FCE0104960E94D31AB7
:1037D000AE01465F5F4FBE016C5F7F4FCE010D961D
:1037E0000E94B015AE01405F5F4FBE01635F7F4F27
:1037F000CE0143960E94B015BE016D5E7F4FC5019C
:103800000E94E615B601CE0107960E94DA15BE01A8
:10381000695F7F4FCE010A960E94D31AB701CE018D
:1038200001960E94DA15BE016F5F7F4FCE010496AC
:103830000E94D31AAE01465F5F4FBE016C5F7F4F9F
:10384000CE010D960E94B015BE01635F7F4FC80187
:1038500044960E94E61565960FB6F894DEBF0FBE3B
:10386000CDBFDF91CF911F910F91FF90EF90DF902F
:10387000CF90BF90AF900895AF92BF92CF92DF925A
:10388000EF92FF920F931F93CF93DF93CDB7DEB7E5
:1038900065970FB6F894DEBF0FBECDBF8C010B96B7
:1038A0000E94A713882331F0F8018289811102C098
:1038B00081E0818BC80108960E94A713882329F014
:1038C000F8018289811101C0118A5801FEE0AF0E12
:1038D000B11CA8014E5F5F4FB501CE0140960E941A
:1038E0009715780185E0E80EF11CB701CE01079627
:1038F0000E94DA15BE01695F7F4FCE010A960E94D1
:10390000D31A6801E1E1CE0ED11CB601CE010196B9
:103910000E94DA15BE016F5F7F4FCE0104960E94B0
:10392000D31AAE01465F5F4FBE016C5F7F4FCE0181
:103930000D960E94B015AE01405F5F4FBE01635F00
:103940007F4FCE0143960E94B015BE016D5E7F4F42
:10395000C5010E94E615B601CE0107960E94DA1550
:10396000BE01695F7F4FCE010A960E94D31AB7014C
:10397000CE0101960E94DA15BE016F5F7F4FCE0126
:1039800004960E94D31AAE01465F5F4FBE016C5F82
:103990007F4FCE010D960E94B015BE01635F7F4F31
:1039A000C80144960E94E61565960FB6F894DEBFEE
:1039B0000FBECDBFDF91CF911F910F91FF90EF9080
:1039C000DF90CF90BF90AF9008952F923F924F928B
:1039D0005F926F927F928F929F92AF92BF92CF929F
:1039E000DF92EF92FF920F931F93CF93DF9300D05C
:1039F00000D000D0CDB7DEB78C017C0123E4E21A01
:103A00002EEFF20AF701C080D180C6010E94A713F1
:103A1000B82EF801EF53FE4F808191810E94A713C9
:103A2000F8019581911102C08B218483F801ED5337
:103A3000FE4F808191810E94A713B82EC6010E947B
:103A4000A713F8019085911104C091E089278B2973
:103A500087836801F1E4CF1AFEEFDF0AF601808167
:103A600091810E94A713F8019385911101C082876B
:103A7000B8016E5E7E4FC8010D960E94E615C80122
:103A800002960E943C1CF801828D811102C081E0E7
:103A9000818FB801605F7F4FC8018B5E9E4F0E948F
:103AA000E615F801E153FE4FA080B180B8016D5ECC
:103AB0007F4FCE0101960E94DA15BE016F5F7F4FE6
:103AC000C5010E94C113B8016A5E7F4FC801885EBC
:103AD0009E4F0E94E615F701808191810E94A713F5
:103AE0009801255E3E4F3D832C83A901682FCE01AE
:103AF00001960E94C915BE016F5F7F4FC8014E96A7
:103B00000E94E615F701808191810E94A713B82ECB
:103B1000C801825E9E4F0E94A71391E0B926B82A81
:103B2000B9821A821B82BE016F5F7F4FC8018196E6
:103B30000E94E615F601808191810E94A713F80189
:103B400095A1911101C084A3B8016C5D7E4FC8019D
:103B500087960E94E615C8014C960E943C1CF8010D
:103B600084A9811102C081E083ABB801665D7F4FFB
:103B7000C801895D9E4F0E94E615F801EF52FE4F85
:103B8000A080B180B801635D7F4FCE0101960E9495
:103B9000DA15BE016F5F7F4FC5010E94C113B801E6
:103BA000605D7F4FC801865D9E4F0E94E615F7015C
:103BB000808191810E94A7139801235D3E4F3F832E
:103BC0002E83A901682FCE0101960E94C915BE015E
:103BD0006F5F7F4FC801C8960E94E615F70180818C
:103BE00091810E94A713B82EC801805D9E4F0E944C
:103BF000A71391E0B926B82AB9821A821B82BE01A6
:103C00006F5F7F4FC801CB960E94E615F601808159
:103C100091810E94A713F80197AD911101C086AF61
:103C2000B8016A5C7E4FC8018F5B9F4F0E94E6150A
:103C3000C801C6960E943C1CF801E35BFF4F8181DE
:103C4000811102C081E08083B8016C5B7F4FC801A5
:103C5000875C9E4F0E94E615F801ED52FE4FA08052
:103C6000B180B801695B7F4FCE0101960E94DA15E1
:103C7000BE016F5F7F4FC5010E94C113B801665B33
:103C80007F4FC801845C9E4F0E94E615F70180813A
:103C900091810E94A7133801F1EC6F1AFEEF7F0AA1
:103CA000A301682FCE0101960E94C915BE016F5F66
:103CB0007F4FC8018E5A9F4F0E94E615F701808101
:103CC00091810E94A713B82EC8018E5B9E4F0E945F
:103CD000A71391E0B926B82AB9821A821B82BE01C5
:103CE0006F5F7F4FC8018B5A9F4F0E94E615F60108
:103CF000808191810E94A713F801E85AFF4F9181BA
:103D0000911101C08083B801685B7E4FC801855A5C
:103D10009F4F0E94E615C801805B9F4F0E94931B36
:103D2000F801E659FF4F8181811102C081E0808353
:103D3000B801625A7F4FC801855B9E4F0E94E6150D
:103D4000F801EB52FE4FA080B180B8016F597F4F50
:103D5000CE0101960E94DA15BE016F5F7F4FC5014B
:103D60000E94C113B8016C597F4FC801825B9E4FFE
:103D70000E94E615F701808191810E94A713180126
:103D8000FFEA2F1AFEEF3F0AA101682FCE0101962C
:103D90000E94C915BE016F5F7F4FC80181599F4FB7
:103DA0000E94E615F701808191810E94A713B82E29
:103DB000C8018C5A9E4F0E94A71391E0B926B82AD9
:103DC000B9821A821B82BE016F5F7F4FC8018E5875
:103DD0009F4F0E94E615F601808191810E94A713F2
:103DE000F801EB58FF4F9181911101C08083B80118
:103DF000665A7E4FC80188589F4F0E94E615C80139
:103E000083599F4F0E94931BF801E957FF4F81810F
:103E1000811102C081E08083B80165587F4FC801DD
:103E2000835A9E4F0E94E615F801E952FE4FA0808A
:103E3000B180B80162587F4FCE0101960E94DA1519
:103E4000BE016F5F7F4FC5010E94C113B8016F575C
:103E50007F4FC801805A9E4F0E94E615F70180816E
:103E600091810E94A71398012D593E4F39872887C9
:103E7000A901682FCE0101960E94C915BE016F5F8E
:103E80007F4FC80184579F4F0E94E615F70180813C
:103E900091810E94A713B82EC8018A599E4F0E9493
:103EA000A71391E0B926B82AB9821A821B82BE01F3
:103EB0006F5F7F4FC80181579F4F0E94E615F60143
:103EC000808191810E94A713F801EE56FF4F9181E6
:103ED000911101C08083B80164597E4FC8018B568F
:103EE0009F4F0E94E615C80186579F4F0E94931B63
:103EF000F801EC55FF4F8181811102C081E0808380
:103F0000B80168567F4FC80181599E4F0E94E6153F
:103F1000F801E752FE4FA080B180B80165567F4F8F
:103F2000CE0101960E94DA15BE016F5F7F4FC50179
:103F30000E94C113B80162567F4FC8018E589E4F30
:103F40000E94E615F701808191810E94A713A801C4
:103F50004B585E4F682FCE0101960E94C915BE01D5
:103F60006F5F7F4FC80187559F4F0E94E615F7018D
:103F7000808191810E94A713B82EC80188589E4F56
:103F80000E94A713AA24A394BA24B82AB9821A8239
:103F90001B82BE016F5F7F4FC80184559F4F0E94F7
:103FA000E615B80165587E4FC80181559F4F0E94A4
:103FB000E615B80162587E4FC8018E549F4F0E948B
:103FC000E615C80189559F4F0E94E21AF801E25494
:103FD000FF4F8181811101C0A082B8016B547F4FD6
:103FE000C8018F579E4F0E94E615B80168547F4F55
:103FF000C8018C579E4F0E94E615F801E552FE4F0E
:10400000A080B180B80165547F4FCE0101960E9417
:10401000DA15BE016F5F7F4FC5010E94C113F70122
:10402000808191810E94A7135801F9E7AF1AFEEF32
:10403000BF0AA501682FCE0101960E94C915BE01D5
:104040006F5F7F4FC8018D539F4F0E94E615F701A8
:10405000808191810E94A713982EC80186579E4F98
:104060000E94A71391E09926982A99821A821B82AE
:10407000BE016F5F7F4FC8018A539F4F0E94E615B4
:10408000B80163577E4FC80187539F4F0E94E615C2
:10409000F601808191810E94A713F801E453FF4F3C
:1040A0009181911101C08083C8018F539F4F0E945D
:1040B000E21AF801E852FF4F8181811102C081E0CC
:1040C0008083B80161537F4FC8018D569E4F0E9477
:1040D000E615B8016E527F4FC8018A569E4F0E9466
:1040E000E615F801E352FE4F80809180B8016B52D3
:1040F0007F4FCE0101960E94DA15BE016F5F7F4FA0
:10410000C4010E94C113F701808191810E94A7130D
:104110002801F7E64F1AFEEF5F0AA201682FCE01D1
:1041200001960E94C915BE016F5F7F4FC80183527F
:104130009F4F0E94E615F701808191810E94A7138D
:10414000982EC80184569E4F0E94A71391E099268D
:10415000982A99821A821B82BE016F5F7F4FC80125
:1041600080529F4F0E94E615B80161567E4FC801EC
:104170008D519F4F0E94E615F601808191810E942A
:10418000A713F801EA51FF4F9181911101C080837B
:10419000C80185529F4F0E94E21AF801EE50FF4F6E
:1041A0008181811102C081E08083B80167517F4F16
:1041B000C8018B559E4F0E94E615B80164517F4F90
:1041C000C80188559E4F0E94E615F801E152FE4F46
:1041D00080809180B80161517F4FCE0101960E948D
:1041E000DA15BE016F5F7F4FC4010E94C113F70152
:1041F000808191810E94A7134801F5E58F1AFEEF97
:104200009F0AA401682FCE0101960E94C915BE0124
:104210006F5F7F4FC80189509F4F0E94E615F701DD
:10422000808191810E94A713F82EC80182559E4F6C
:104230000E94A71391E0F926F82AF9821A821B82BC
:10424000BE016F5F7F4FC80186509F4F0E94E615E9
:10425000B8016F547E4FC80183509F4F0E94E615EE
:10426000F601808191810E94A713F801F395918155
:10427000911101C08083C8018B509F4F0E94E21AA8
:10428000F801E45FFE4F8181811102C081E08083EB
:10429000B8016D5F7E4FC80189549E4F0E94E6159C
:1042A000B8016A5F7E4FC80186549E4F0E94E61592
:1042B000F801EF51FE4FE080F180B801675F7E4F5B
:1042C000CE0101960E94DA15BE016F5F7F4FC701D4
:1042D0000E94C113F801EB53FE4FE080F180C7014B
:1042E0000E94A713F5019181911101C08083C7013C
:1042F0000E94A713F3019181911101C08083F801FD
:10430000E953FE4FE080F180C7010E94A713F2013C
:104310009181911101C08083C7010E94A713F1010F
:104320009181911101C08083F801E353FE4F808198
:1043300091810E94A713EC81FD819181911101C0AF
:104340008083F801E753FE4FE080F180C7010E94AF
:10435000A713F4019181911101C08083C7010E94CC
:10436000A713E885F9859181911101C08083F80137
:10437000E553FE4F808191810E94A713EE81FF815A
:104380009181911101C0808329960FB6F894DEBF08
:104390000FBECDBFDF91CF911F910F91FF90EF9096
:1043A000DF90CF90BF90AF909F908F907F906F9055
:1043B0005F904F903F902F9008952F923F924F9291
:1043C0005F926F927F928F929F92AF92BF92CF92A5
:1043D000DF92EF92FF920F931F93CF93DF93CDB7AE
:1043E000DEB7A7970FB6F894DEBF0FBECDBF4C0166
:1043F000809156088983809157088A838091580854
:104400008B83809159088C8380915A088D83809189
:104410005B088E8380915C088F8380915D0888871C
:1044200019861A861B861C861D861E861F86188A7C
:10443000198A340110E3610E711CBE016F5F7F4F5A
:10444000C3010E944D07C40102969C8F8B8FD4013B
:104450009D96BEA3ADA3BD01CE0101960E94DA15C3
:10446000BE016F5F7F4FCE0142960E94D31AF401C6
:1044700083A5882379F184A561E0811160E0AE0114
:104480004E5E5F4FCE0145960E94C9154B8D5C8DE7
:10449000BE016B5E7F4FCE0148960E94B015CE01E3
:1044A00048960E94A7138823B9F0F40183A58111CF
:1044B00002C081E082A7D40157968C915797811151
:1044C00002C056961C92B301C4018F5B9F4F0E949D
:1044D0004D0741C082A5D0CF6B8D7C8DCE0101965A
:1044E0000E94DA15BE016F5F7F4FCE0142960E9497
:1044F000D31ACE0142960E94A713F401F3A5FCA3A0
:10450000882309F447C0D40191968C919197811129
:1045100017C059961C9259975A961C925A975B96B7
:104520001C925B975C961C925C975D961C925D97C3
:104530005E961C925E975F961C925F9790961C9277
:10454000F4018789811101C0168AFCA1F11103C011
:10455000D4019A961C926B8D7C8D8DA19EA10E9498
:10456000E615A7960FB6F894DEBF0FBECDBFDF915C
:10457000CF911F910F91FF90EF90DF90CF90BF9060
:10458000AF909F908F907F906F905F904F903F90F3
:104590002F900895BCA1BB2309F463C0F40184A546
:1045A0008130C9F6F401EF5BFF4F8085882309F461
:1045B0005CC02184B285BD8FA385AE8FB485BF8FCB
:1045C000A585A8A3B685B9A3A785AAA3B089BBA3CF
:1045D000F4018585882309F458C0268537854089EC
:1045E00051896289738984899589A22CBD8CCE8C6E
:1045F000DF8CE8A0F9A00AA11BA10E94DE4ED40125
:10460000D896EC91D897EE2309F448C0D9963C90FF
:10461000F401F9964180528063807480B581A6814F
:1046200017811FA3A32CB42CC52CD62CE72CFB2E52
:104630000A2F0E94FC4E11F00CF043C0ACA1A11156
:1046400004C082E0D4019A968C93F4018789811189
:1046500002C081E0868BB4016B5F7F4FC401499635
:1046600036CFD4019A968C919BCF2080A181AD8FBB
:10467000B281BE8FA381AF8FB481B8A3A581A9A356
:10468000B681BAA3A781ABA3A3CF25813681478189
:1046900050856185728583859485A7CFF40130A804
:1046A00041A852A863A874A8B5A9A6A9F7A9FFA311
:1046B000A32CB42CC52CD62CE72CFB2E0A2F1F2F95
:1046C000B8CF232D342D452D562D672D7B2F8A2FC6
:1046D0009FA1A22CBD8CCE8CDF8CE8A0F9A00AA1F2
:1046E0001BA10E94F34E29833A834B835C836D8325
:1046F0007E838F83988719861A861B861C861D8663
:104700001E861F86188A198ABE016F5F7F4FC401FB
:1047100049960E944D071FCF5F926F927F928F92B2
:104720009F92AF92BF92CF92DF92EF92FF920F9340
:104730001F93CF93DF93CDB7DEB762970FB6F89490
:10474000DEBF0FBECDBF8C01FC01E259FF4FC08020
:10475000D1807C0122E0E20EF11CB701CE0104966B
:104760000E94DA15BE016C5F7F4FCE0107960E9452
:10477000D31AB8016B5F7F4FAE01495F5F4FCE0127
:104780000A960E94B015F801EC58FF4F8081918184
:104790000E94A713A701682FCE0101960E94C91598
:1047A000AE01465F5F4FBE016F5F7F4FCE010D963A
:1047B0000E94971578013CE6E30EF11CF701808119
:1047C00091810E94A713AE01435F5F4F682FCE0116
:1047D00040960E94C915BE01605F7F4FC6010E94CE
:1047E000C113F801E059FF4FA080B180F70180812B
:1047F00091810E94A713E82E6801FBE0CF0ED11C27
:10480000A801485F5F4FB601CE0101960E9497153F
:10481000CE0101960E94A71355245394E524E82A5B
:10482000EC821D821E82BE016C5F7F4FC5010E941B
:10483000C113380129E6620E711CC3010E94A7133F
:10484000F82E480136E6830E911C58018EE0A80E22
:10485000B11CA401B501CE0101960E94B015CE0194
:1048600001960E94A713F524F822FC821D821E8265
:10487000BE016C5F7F4FC80143960E94E615F801A8
:10488000868D811109C085E0868B178A108E118E66
:10489000128E138E148E158EB301CE0101960E94D6
:1048A000DA15BE016F5F7F4FCE0104960E94D31AC6
:1048B000A401BE016C5F7F4FCE0107960E94B01528
:1048C000A501BE01695F7F4FCE010A960E94B01517
:1048D000CE010A960E94A71398012D593F4F7901E6
:1048E000882309F446C0C80141960E94DD21F701E2
:1048F0008181811102C081E08083C7010E94A713DA
:104900007801F7E2EF0EF11C882321F0B701C60110
:104910000E94E615C7010E94A713882331F0F80111
:104920008485811102C081E08387F801EE58FF4F32
:10493000808191810E94A713882329F0F801848542
:10494000811101C0138662960FB6F894DEBF0FBEC8
:10495000CDBFDF91CF911F910F91FF90EF90DF902E
:10496000CF90BF90AF909F908F907F906F905F900F
:104970000895F90181818111C0CF1082BECF2F929D
:104980003F924F925F926F927F928F929F92AF92DF
:10499000BF92CF92DF92EF92FF920F931F93CF932C
:1049A000DF93CDB7DEB7AC970FB6F894DEBF0FBE7E
:1049B000CDBF8C015C0128E0A20EB11CC5010E9494
:1049C000A713F801E351FF4F9181882309F4CAC767
:1049D000D801A051BF4F12968C911297811102C03D
:1049E0001D921C92911102C081E08083CF010E9430
:1049F000A713D801A956BE4F7D01882379F0CD9029
:104A0000DC90B80160517F4FCE0101960E940109F0
:104A1000BE016F5F7F4FC6010E94F3082801BDE70A
:104A20004B1ABEEF5B0AF201808191810E94A713AD
:104A3000D82EC80102960E94A7138D2189831A825D
:104A40001B82CE0101960E94A71398012B503F4F65
:104A50006901882309F48AC781E090E09C8F8B8FDD
:104A60001D8E1F8E1E8E1B8A1A8A1C8A1E8A1D8A04
:104A7000D7018D919C910E94AC089A8389831D82F5
:104A80001C829E01255E3F4FAE014E5E5F4FBE0110
:104A90006F5F7F4FCE0184960E94C508BE016C5D9A
:104AA0007F4FC80188509F4F0E94B608F601818150
:104AB000811102C081E08083C6010E94A713882370
:104AC00081F0F70180809180B80168507F4FCE015E
:104AD00001960E940109BE016F5F7F4FC4010E94D1
:104AE000F308B6016801F1EECF0ED11CC6010E9499
:104AF000E61538012FED620E711C430138E0830E7C
:104B0000911CC4010E94A713282EC6010E94A7135E
:104B1000332433942324282229821A821B8285E09D
:104B2000680E711CBE016F5F7F4FC3010E94E615C6
:104B3000B601C4010E94E615F801E651FF4F8181DC
:104B4000811101C03082C3010E94A713D801A7566A
:104B5000BE4F3D01F801E350FF4F6F01882309F478
:104B60000DC781E090E09B8B8A8B1C8A1E8A1D8A70
:104B70006D917C91CE0101960E940109CE010196B2
:104B80000E94AC084C01CE0142960E94AC08880DF0
:104B9000991D9C8F8B8F1D8E1F8E1E8EBE01655E94
:104BA0007F4FC80193950E94B608D60111968C914B
:104BB0001197811102C081E08C93C6010E94A71356
:104BC000882371F0B8017395CE0101960E94010906
:104BD000BE016F5F7F4FD3018D919C910E94B608FB
:104BE00081E090E09A8389831B821D821C82F701F9
:104BF000808191810E94AC086C01CE0101960E94D7
:104C0000AC0821E0C816D90609F020E02A8B1B8ADF
:104C10001C8A6801F8EFCF1AFEEFDF0ABE016E5E54
:104C20007F4FC6010E94E615C8018B5F9E4FDC01D5
:104C300011962C911197211102C021E02C930E9412
:104C4000A7134801BBE08B0E911C882321F0B6010D
:104C5000C4010E94E615F801E357FE4F60807180A1
:104C60006801EEE0CE0ED11CB601CE0101960E9485
:104C7000DA15BE016F5F7F4FCE0142960E94D31AB4
:104C8000A401BE016E5E7F4FCE014B960E94B0150F
:104C9000BE01655E7F4FC3010E94C113F801E75654
:104CA000FE4F608171816B5F7F4FCE0101960E9444
:104CB0009A08F801E557FE4F808191810E94940780
:104CC0003B014C01CE0101960E9494079B01AC016F
:104CD00033243394C401B3010E949E4D87FD312CCF
:104CE0003A8A1B8A1C8A4801F2EF8F1AFEEF9F0A4C
:104CF000BE016E5E7F4FC4010E94E615C801855F4C
:104D00009E4FDC0111962C911197211102C021E0D8
:104D10002C930E94A713882321F0B401C6010E949E
:104D2000E615F201808191810E94A713982EC60199
:104D30000E94A713892189831A821B82CE010196C2
:104D40000E94A71398012F5E3E4F6901882309F442
:104D50001AC6D7018D919C9122E030E03C8F2B8FB9
:104D60001D8E1F8E1E8E21E030E03B8B2A8B1C8A0D
:104D70001E8A1D8A0E94AC089A8389831D821C8228
:104D80009E01255E3F4FAE014E5E5F4FBE016F5FDD
:104D90007F4FCE0184960E94C508BE016C5D7F4F97
:104DA000C8018C5E9E4F0E94B608F6018181811178
:104DB00002C081E08083C6010E94A713882381F08E
:104DC000F701C080D180B8016C5E7E4FCE010196A4
:104DD0000E940109BE016F5F7F4FC6010E94F30868
:104DE00082E090E09A8389831B821D821C82D70116
:104DF0008D919C910E94AC086C01CE0101960E949D
:104E0000AC0821E0C816D90609F020E02A8B1B8ADD
:104E10001C8A6801B4EECB1ABEEFDB0ABE016E5EDF
:104E20007F4FC6010E94E615C801875E9E4FFC01B8
:104E30002181211102C021E020830E94A713480193
:104E4000F1E18F0E911C882321F0B601C4010E946C
:104E5000E615F801E157FE4F60807180680124E19A
:104E6000C20ED11CB601CE0101960E94DA15BE0118
:104E70006F5F7F4FCE0142960E94D31AA401BE01FC
:104E80006E5E7F4FCE014B960E94B015BE01655EEF
:104E90007F4FC3010E94C113480137E6831A3EEFDA
:104EA000930AD4016D917C91625F7F4FCE0142964F
:104EB0000E949A08F401608171816B5F7F4FCE017F
:104EC00001960E949A08CE0101960E9494073B0128
:104ED0004C01CE0142960E9494079B01AC01C40193
:104EE000B3010E94464C6B8F7C8F8D8F9E8F1F8EDF
:104EF00018A219A21AA21BA2F801E557FE4F808141
:104F000091810E9494073B014C01CE014B960E9477
:104F100094079B01AC0133243394C401B3010E9474
:104F20009E4D87FD312C3CA21DA21EA24801FEED24
:104F30008F1AFEEF9F0ABE016C5D7F4FC4010E9475
:104F4000E615C801815E9E4FDC0111962C911197E8
:104F5000211102C021E02C930E94A713882321F085
:104F6000B401C6010E94E615F201808191810E9480
:104F7000A713982EC6010E94A713892189831A823C
:104F80001B82CE0101960E94A71398012B5D3E4F14
:104F90006901882309F4FFC4D7018D919C9123E016
:104FA00030E03C8F2B8F1D8E1F8E1E8E22E030E056
:104FB0003B8B2A8B1C8A1E8A1D8A0E94AC089A830E
:104FC00089831D821C829E01255E3F4FAE014E5E8D
:104FD0005F4FBE016F5F7F4FCE0184960E94C50870
:104FE000BE016C5D7F4FC801885D9E4F0E94B60870
:104FF000F6018181811102C081E08083C6010E9497
:10500000A713882381F0F701C080D180B801685DC3
:105010007E4FCE0101960E940109BE016F5F7F4F56
:10502000C6010E94F30883E090E09A8389831B8283
:105030001D821C82D7018D919C910E94AC086C014D
:10504000CE0101960E94AC0821E0C816D90609F0ED
:1050500020E02A8B1B8A1C8A6801B0EDCB1ABEEFB8
:10506000DB0ABE016E5E7F4FC6010E94E615C801D5
:10507000835D9E4FFC012181211102C021E020832C
:105080000E94A7134801F0E28F0E911C882321F0A3
:10509000B601C4010E94E61598012B563E4F3AA76F
:1050A00029A7D9016D907C906801B3E2CB0ED11C89
:1050B000B601CE0101960E94DA15BE016F5F7F4FE7
:1050C000CE0142960E94D31AA401BE016E5E7F4FAC
:1050D000CE014B960E94B015BE01655E7F4FC301A5
:1050E0000E94C113B401C80188960E94E6151801F8
:1050F000E7E62E1AEEEF3E0AD101ED91FC9181A96F
:10510000882309F450C472A963A954A945A936A9F2
:1051100027A990AD81AD79836A835B834C833D83FE
:105120002E839F83888719861A861B861C861D8678
:105130001E861F86188A198ABE016F5F7F4FC801BD
:105140008B960E944D07C80186960E94DD21F801CA
:10515000E858FF4F8181811102C081E08083B8014E
:10516000645C7F4FC6010E94E615F2018081918147
:105170000E94A713982EC6010E94A7138921898334
:105180001A821B82CE0101960E94A71398012D5C02
:105190003E4F6901882309F40FC484E090E09C8F9E
:1051A0008B8F1D8E1F8E1E8E83E090E09B8B8A8BD3
:1051B0001C8A1E8A1D8AD7018D919C910E94AC0881
:1051C0009A8389831D821C829E01255E3F4FAE011A
:1051D0004E5E5F4FBE016F5F7F4FCE0184960E948F
:1051E000C508BE016C5D7F4FC8018A5C9E4F0E945E
:1051F000B608F6018181811102C081E08083C60179
:105200000E94A713882381F0F701C080D180B801E4
:105210006A5C7E4FCE0101960E940109BE016F5F5C
:105220007F4FC6010E94F30884E090E09A8389834F
:105230001B821D821C82D7018D919C910E94AC081B
:105240007C01CE0101960E94AC0821E0E816F90627
:1052500009F020E02A8B1B8A1C8A7801B2ECEB1A39
:10526000BEEFFB0ABE016E5E7F4FC7010E94E615CE
:10527000C801855C9E4FFC012181211102C021E003
:1052800020830E94A7136801FBE7CF0ED11C88235F
:1052900021F0B701C6010E94E61598012F563E4F36
:1052A0003CA72BA7D9018D909C907801BEE7EB0E0F
:1052B000F11CB701CE0101960E94DA15BE016F5FA5
:1052C0007F4FCE0142960E94D31AA601BE016E5EA8
:1052D0007F4FCE014B960E94B015BE01655E7F4F99
:1052E000C4010E94C11319821A821B821C821D8272
:1052F0001E821F8218861986F801E557FE4F8081AD
:1053000091810E9494072B013C01CE0101960E94DD
:1053100094079B01AC01DD24D394C301B2010E9428
:10532000B24C18160CF4D12CDA8A1B8A1C8A68013C
:10533000ECEBCE1AEEEFDE0ABE016E5E7F4FC601C9
:105340000E94E615C8018F5B9E4FDC0111962C91DF
:105350001197211102C021E02C930E94A7138823EA
:1053600021F0B601C7010E94E6153801BDE76B1AAE
:10537000BEEF7B0AF301808191810E94A713A701F0
:10538000682FCE0101960E94C915CE0101960E9498
:10539000A713980129563E4F7901882309F414C3B5
:1053A00085E090E09C8F8B8F1D8E1F8E1E8E84E07B
:1053B00090E09B8B8A8B1C8A1E8A1D8AD9018D9155
:1053C0009C910E94AC089A8389831B821D821C8257
:1053D0009E01255E3F4FAE014E5E5F4FBE016F5F87
:1053E0007F4FCE0184960E94C508BE016C5D7F4F41
:1053F000C801865B9E4F0E94B608F801E95BFE4F2C
:105400008181811102C081E08083C801895B9E4F48
:105410000E94A713882381F0F701C080D180B801D2
:10542000665B7E4FCE0101960E940109BE016F5F4F
:105430007F4FC6010E94F30885E090E09A8389833C
:105440001B821D821C82D7018D919C910E94AC0809
:105450006C01CE0101960E94AC0821E0C816D90665
:1054600009F020E02A8B1B8A1C8A6801BEEACB1A4D
:10547000BEEFDB0ABE016E5E7F4FC6010E94E615DD
:10548000C801815B9E4FFC012181211102C021E0F6
:1054900020830E94A7134801F1E88F0E911C8823F6
:1054A00021F0B601C4010E94E61528012DE6421A3A
:1054B0002EEF520AD201CD90DC90B401CE010196BC
:1054C0000E94DA15BE016F5F7F4FC6010E94C113B3
:1054D0006801B4E8CB0ED11CB601CE0101960E9442
:1054E000DA15BE016F5F7F4FCE0142960E94D31A3C
:1054F000A401BE016E5E7F4FCE014B960E94B01597
:10550000BE01655E7F4FC80187579F4F0E94E61519
:10551000F101A081B181FD01EE5BFF4F80813897E1
:10552000882309F459C27185628553854485358580
:1055300026859785808979836A835B834C833D8345
:105540002E839F83888719861A861B861C861D8654
:105550001E861F86188A198ABE016F5F7F4FC80199
:1055600084579F4F0E944D07C80189579F4F0E9443
:10557000DD21F801E752FF4F8181811102C081E0F6
:105580008083B80163567F4FC6010E94E615D301A0
:105590008D919C910E94A713A601682FCE010196C0
:1055A0000E94C915CE0101960E94A713882309F411
:1055B0001DC286E090E09C8F8B8F1D8E1F8E1E8EED
:1055C00085E090E09B8B8A8B1C8A1E8A1D8AF701DE
:1055D000808191810E94AC089A8389831B821D82FD
:1055E0001C829E01255E3F4FAE014E5E5F4FBE01A5
:1055F0006F5F7F4FCE0184960E94C508BE016C5D2F
:105600007F4FC801885A9E4F0E94B608F801EB5A96
:10561000FE4F8181811102C081E08083C8018B5AD5
:105620009E4F0E94A713882381F0D701CD90DC9074
:10563000B801685A7E4FCE0101960E940109BE0151
:105640006F5F7F4FC6010E94F30886E090E09A8367
:1056500089831B821D821C82F701808191810E94B7
:10566000AC086C01CE0101960E94AC0821E0C8167E
:10567000D90609F020E02A8B1B8A1C8A4801F0EA2F
:105680008F1AFEEF9F0ABE016E5E7F4FC4010E941B
:10569000E615C801835A9E4FDC0111962C91119793
:1056A000211102C021E02C930E94A7136801BCEDD8
:1056B000CB0ED11C882321F0B401C6010E94E6154F
:1056C000F301808191810E94A713A501682FCE016B
:1056D00001960E94C915CE0101960E94A713882346
:1056E00009F48CC11C8E1B8E1D8E1F8E1E8E86E0B3
:1056F00090E09B8B8A8B1C8A1E8A1D8AD7018D9114
:105700009C910E94AC089A8389831B821D821C8213
:105710009E01255E3F4FAE014E5E5F4FBE016F5F43
:105720007F4FCE0184960E94C508BE016C5D7F4FFD
:10573000C8018A599E4F0E94B608F801ED59FE4FE4
:105740008181811102C081E08083C8018D599E4F03
:105750000E94A713882381F0F70180809180B8010F
:105760006A597E4FCE0101960E940109BE016F5F0A
:105770007F4FC4010E94F308C6010E94A71388232B
:1057800051F0F801E357FE4F0190F081E02D818147
:10579000811101C01082C6010E94A713882351F015
:1057A000F801E157FE4F0190F081E02D81818111D8
:1057B00001C01082C6010E94A713882341F0A9A549
:1057C000BAA5ED91FC918181811101C01082C601C1
:1057D0000E94A713882341F0ABA5BCA5ED91FC91D5
:1057E0008181811101C01082C6010E94A713882304
:1057F00039F0D201ED91FC918181811101C01082BB
:10580000F301808191810E94A713F801E559FE4FB1
:1058100091818111FBC0D801A259BE4F12968C9183
:105820001297811104C027E030E02D933C93911131
:1058300002C081E08083CF010E94A713882381F0FA
:10584000D701CD90DC90B80162597E4FCE01019610
:105850000E940109BE016F5F7F4FC6010E94F308DD
:10586000F301808191810E94A713D82EC5010E9467
:10587000A7138D2189831A821B82CE0101960E9473
:10588000A713F801ED58FE4F9181882309F4C2C097
:10589000D801AA58BE4F12968C911297811102C05E
:1058A0001D921C92911102C081E08083CF010E9461
:1058B000A713882381F0D701CD90DC90B8016A58F6
:1058C0007E4FCE0101960E940109BE016F5F7F4F9E
:1058D000C6010E94F308C80105960E94A713F801AB
:1058E000E558FE4F9181882309F498C0D801A25849
:1058F000BE4F12968C911297811102C01D921C927C
:10590000911102C081E08083CF010E94A7138823F8
:1059100081F0F701E080F180B80162587E4FCE013E
:1059200001960E940109BE016F5F7F4FC7010E946F
:10593000F308AC960FB6F894DEBF0FBECDBFDF9173
:10594000CF911F910F91FF90EF90DF90CF90BF907C
:10595000AF909F908F907F906F905F904F903F900F
:105960002F900895911142C8108240C8D901119614
:105970008C9111978111A0C81C929EC881818111C0
:105980001CC910821AC9D90111968C9111978111E5
:1059900012CA1C9210CAD90111968C9111978111CB
:1059A0002DCB1C922BCB71A562A553A544A535A583
:1059B00026A597A580A9AFCBD90111968C911197F7
:1059C00081111DCC1C921BCCF801E95BFE4F81813B
:1059D00081111BCD108219CDDA967C9161815281A3
:1059E00043813481258196818781A5CDF801EB5AC9
:1059F000FE4F8181811112CE108210CEF801ED5937
:105A0000FE4F81818111A1CE10829FCE911113CFC3
:105A1000108211CF91114ACF108248CF911174CFCB
:105A2000108272CFCF93DF93EB010E94A71388837C
:105A3000DF91CF91089590E080E0FC01EE0FFF1F11
:105A4000ED52F84F0190F081E02D309709F010826F
:105A500001968833910589F7E3E9F7E083ED97E054
:105A6000A191B191109711F01D921C928E179F0772
:105A7000B9F7EEECF4E08EE095E0A191B1911097CA
:105A800029F01D921D921D921C9213978E179F074D
:105A9000A1F708950F931F93863038F060E070E00F
:105AA00080E090E01F910F9108950CEE17E020E048
:105AB000332790E0880F991FB0E0A0E0080F191F6E
:105AC0002A1F3B1F2BBFF801079116916017710722
:105AD000D0F400EE17E020E03327800F911FA21FC3
